{
  "contractName": "Bank",
  "abi": [
    {
      "inputs": [],
      "name": "deposit",
      "outputs": [],
      "stateMutability": "payable",
      "type": "function",
      "payable": true
    },
    {
      "inputs": [
        {
          "internalType": "address",
          "name": "account",
          "type": "address"
        }
      ],
      "name": "balance",
      "outputs": [
        {
          "internalType": "uint256",
          "name": "",
          "type": "uint256"
        }
      ],
      "stateMutability": "view",
      "type": "function",
      "constant": true
    },
    {
      "inputs": [
        {
          "internalType": "uint256",
          "name": "amount",
          "type": "uint256"
        }
      ],
      "name": "withdraw",
      "outputs": [],
      "stateMutability": "payable",
      "type": "function",
      "payable": true
    }
  ],
  "bytecode": "0x608060405234801561001057600080fd5b506103c8806100206000396000f3fe6080604052600436106100345760003560e01c80632e1a7d4d14610039578063d0e30db014610055578063e3d670d71461005f575b600080fd5b610053600480360381019061004e9190610219565b61009c565b005b61005d61013f565b005b34801561006b57600080fd5b50610086600480360381019061008191906102a4565b610196565b60405161009391906102e0565b60405180910390f35b6000803373ffffffffffffffffffffffffffffffffffffffff1673ffffffffffffffffffffffffffffffffffffffff168152602001908152602001600020548111156100e757600080fd5b806000803373ffffffffffffffffffffffffffffffffffffffff1673ffffffffffffffffffffffffffffffffffffffff1681526020019081526020016000206000828254610135919061032a565b9250508190555050565b346000803373ffffffffffffffffffffffffffffffffffffffff1673ffffffffffffffffffffffffffffffffffffffff168152602001908152602001600020600082825461018d919061035e565b92505081905550565b60008060008373ffffffffffffffffffffffffffffffffffffffff1673ffffffffffffffffffffffffffffffffffffffff168152602001908152602001600020549050919050565b600080fd5b6000819050919050565b6101f6816101e3565b811461020157600080fd5b50565b600081359050610213816101ed565b92915050565b60006020828403121561022f5761022e6101de565b5b600061023d84828501610204565b91505092915050565b600073ffffffffffffffffffffffffffffffffffffffff82169050919050565b600061027182610246565b9050919050565b61028181610266565b811461028c57600080fd5b50565b60008135905061029e81610278565b92915050565b6000602082840312156102ba576102b96101de565b5b60006102c88482850161028f565b91505092915050565b6102da816101e3565b82525050565b60006020820190506102f560008301846102d1565b92915050565b7f4e487b7100000000000000000000000000000000000000000000000000000000600052601160045260246000fd5b6000610335826101e3565b9150610340836101e3565b9250828203905081811115610358576103576102fb565b5b92915050565b6000610369826101e3565b9150610374836101e3565b925082820190508082111561038c5761038b6102fb565b5b9291505056fea264697066735822122070bb62a79f1977c43eea4ce25714396cba2f8ed145d4ea7233eba56bae92504e64736f6c63430008110033",
  "immutableReferences": {},
  "source": "// SPDX-License-Identifier: MIT\npragma solidity >=0.4.22 <0.9.0;\n\ncontract Bank {\n\n  mapping (address => uint256) private _balances;\n\n  function deposit( ) public payable {\n    _balances[msg.sender] += msg.value;\n    \n  }\n\n  function balance(address account) public view returns(uint256){\n    return _balances[account];\n  }\n\n  function withdraw(uint amount) public payable{\n\trequire(amount <= _balances[msg.sender]);\n\t_balances[msg.sender] -= amount;\n\n  }\n}\n",
  "sourcePath": "/Users/vaishnav/Desktop/Assignments/Blockchain Technology/smart contract/contracts/Bank.sol",
  "compiler": {
    "name": "solc",
    "version": "0.8.17+commit.8df45f5f.Emscripten.clang"
  },
  "schemaVersion": "3.4.10",
  "updatedAt": "2022-11-10T09:08:11.241Z",
  "networkType": "ethereum",
  "devdoc": {
    "kind": "dev",
    "methods": {},
    "version": 1
  },
  "userdoc": {
    "kind": "user",
    "methods": {},
    "version": 1
  }
}